:100000000C947F03189500001895000018950000C7
:10001000189500001895000018950000189500002C
:10002000189500001895000018950000189500001C
:10003000189500001895000018950000189500000C
:1000400018950000189500000C94340018950000D5
:1000500018950000189500001895000018950000EC
:1000600018950000189500004AC3A0E5B3EC11975D
:1000700009F445C30091C00007FFF9CF0091C0000B
:1000800000680093C000A3942091C600022F3AD2CA
:100090000895A0E1B7E2119709F431C30091C000BF
:1000A00005FFF9CF2093C600022F2CD20895A0E5BA
:1000B000B3EC119709F423C30091C00006FFF9CFF8
:1000C0000091C00000640093C00008950FEF0093FA
:1000D0005201009353010091C00007FFFCCF209113
:1000E000C600022F0FD2E2E7F3E0E20F10E0F11FAB
:1000F000EF3713E0F10750F7EE0FFF1F8591959151
:10010000FC0109951EF70895B0DF273008F026E0BE
:1001100020930101E0EEF3E0E20F10E0F11F049103
:1001200000930001A2DF209302019FDF20930301CF
:100130009CDF20930401CFD1569A0FEF0093520118
:100140000093530120E0A5DF21E0A3DFD1D16AD1E4
:10015000E4EFF1E010910101E10F10E0F11FEE0F6B
:10016000FF1F05910093C40005910093C5000895F9
:10017000B2D10FEF009352010093530121E089DFC8
:100180002091050186DFB4D1089534E0CAE4D1E0BE
:100190006CDF29933A95E1F79ED190D10FEF009350
:1001A00052010093530122E074DF34E0CEE4D1E049
:1001B00029916FDF3A95E1F79BD108958CD1AAE49C
:1001C000B1E00CEA0D9300E80D9300E00D930D9360
:1001D00075D108E223D126D10895EED040910201D5
:1001E00050E043DF20934D01AAE4B1E000E40D9319
:1001F00000E00D935D9362D138DF20934D01AAE4B6
:10020000B1E008E40D9300E00D935D9357D1539551
:100210004A9539F760D1AAE4B1E00DE40D9300E00E
:100220000D93009108010D9300E00D9347D1AAE4CE
:10023000B1E00CE40D93009107010D9300910601CC
:100240000D9300E00D933AD100910401013019F0B3
:100250000AE0E4D012C044E1DAD0AAE4B1E000EF51
:100260000D9300E00D930FEF0D930D9327D10091A7
:10027000510101FF02C04A9579F701D008950FEFAF
:100280000093520100935301AAE4B1E00DE40D93F1
:1002900000E00D93009108010D9300E00D930ED145
:1002A0004091020150910601AAE4B1E000E20D93F1
:1002B000009107010D935D930FEF0D93FFD02091F7
:1002C0005101E7DE08E200934A01F8D02091510184
:1002D000E0DE53954A9541F733950AD10895C5DE7E
:1002E00020930601C2DE20930701BFDE209349015F
:1002F0000895F5DFF0D001D008950FEF009352017B
:10030000009353014091490100EA00934A01009192
:10031000070100934B010FEF00934D01509106012F
:1003200050934C01CBD020915101B3DE53954A95A7
:10033000B9F7DED00895D3DFE9E0F1E0409149015B
:1003400094DE21934A95E1F7C6D000EC00934A0170
:100350000091070100934B010FEF00934D01E9E07D
:10036000F1E0509106014091490150934C010191F7
:1003700000934D01A3D00AE051D053954A95A9F7B7
:10038000BCDF0895A8D037D00FEF0093520100933F
:10039000530125E07EDEACD0B2C19DD070D02A984A
:1003A000229A35D022980FEF009352010093530107
:1003B00028E06FDE9DD00895C6E0D1E043E055DE31
:1003C00029934A95E1F70895F7DF4FDE2093020164
:1003D00082D00FEF009352010093530150DF089534
:1003E00001060B193670E000100022003300670090
:1003F000CF00A00140032298259823982498529872
:100400002A982D982B981C98529856980895AEE7E4
:10041000BCE00000A150B040E1F70895F8DF0A9574
:10042000E9F708952A982D982B981C985298229AAB
:10043000259A239AECDF2A9AEADF2A9808E2EEDF6F
:1004400040E201E0009305010CEA00934A0103E554
:1004500000934B0133D000915001033531F04A95A0
:1004600029F4C9DF00E0009305010895122C1A94C5
:10047000F1F72D9A122C1A94F1F72D98E5CF2A98BE
:10048000229AC5DF2298089528E010E007FC02C0F8
:100490002B9802C02B9A0000122C1A94F1F72D9A77
:1004A0001C9902C0889402C008940000001C122C01
:1004B0001A94F1F72D982A9549F708952090000194
:1004C000AAE4B1E0CEE4D1E034E00D90DDDF0992A2
:1004D0003A95D9F70895E0915201F0915301C5DDA5
:1004E000C22FC3DDD22FEC17FD0709F008C1089514
:1004F000C0915201D09153012C2FCBDD2D2FC9DD9E
:10050000D6DD0895A0915201B09153010A27102F12
:100510001295107F0127102F169516951695169592
:100520001695AB2FB02FB127102F110F110F110FF0
:10053000A12702950F70A027A0935201B0935301F9
:100540000895C9DF0FEF00935201009353012AE091
:10055000A0DDCEDF94DF5298569A6FD00895C4E59F
:10056000D1E045E082DD29934A95E1F7B4DF569A60
:10057000C4E5D1E045E044D009912AD04A95D9F7A5
:100580005CD00895C4E5D1E046E06FDD29934A953B
:10059000E1F7A1DF569AC4E5D1E045E031D00991F9
:1005A00017D04A95D9F700915801013051F0033026
:1005B00041F0003021F02BDF0091590109D056980D
:1005C0000895809156019091570183D056980895CF
:1005D000529A5A9A000000000000000011D018E062
:1005E000069518F000005A9A03C05A9800008894A3
:1005F00007D01A95A9F700005A9802D0529808958A
:10060000D1011197F1F700000000089552984A9B1C
:10061000FECF0000000000000000D2011197F1F7AA
:1006200018E000004A9B02C0889402C008940000B1
:100630000795E6DF1A95A9F708957894A0E0B0E051
:10064000C0E0D0E04A9BFECF4A99FECF11964A9B6C
:10065000FDCF21964A99FDCFCD018C0F9D1FAC1B7C
:10066000BD0BAC1BBD0BAC1BBD0B38F400E00A1B73
:10067000A02F00E00B0BB02F07C00000000000000F
:100680000000000000000000FD01A6E0B0E0C0E0B6
:10069000D0E0E43010E0F107C8F69695879596957E
:1006A000879596958795DC01B695A795B695A795FC
:1006B0008A0F9B1F2C0105971C01C2015694479479
:1006C000840D951D02972C0188E090E002D0569889
:1006D000089578949BDF0093C60081509040D1F735
:1006E000F89408958400B800C500DE00ED00C20152
:1006F000E4017901CD019B01A102C202AF020FEF1B
:100700000DBF08E00EBF00E00093C50000E10093BC
:10071000C40006E00093C20002E40093C00008E9B0
:100720000093C1000000A8950FEF009352010093C1
:100730005301AA240091C00007FFFCCFA39420918D
:10074000C600022FDFDEE2E7F3E0E20F10E0F11F68
:10075000EF3713E0F10798F6EE0FFF1F85919591A3
:08076000FC010995A895DFCF0B
:00000001FF
